:100000000C9472000C9494000C9494000C94940042
:100010000C9494000C9494000C9494000C94940010
:100020000C9494000C9494000C9494000C94940000
:100030000C9494000C9494000C9494000C949400F0
:100040000C9494000C9494000C9494000C949400E0
:100050000C9494000C9494000C9494000C949400D0
:100060000C9494000C9494000C9494000C949400C0
:100070000C9494000C9494000C9494000C949400B0
:100080000C9494000C9494000C9494000C949400A0
:100090000C9494000C9494000C9494000C94940090
:1000A0000C9494000C9494000C9494000C94940080
:1000B0000C9494000C9494000C9494000C94940070
:1000C0000C9494000C9494000C9494000C94940060
:1000D0000C9494000C9494000C9494000C94940050
:1000E0000C94940011241FBECFEFD1E2DEBFCDBF30
:1000F00000E00CBF12E0A0E0B2E0EAE4F3E000E0D0
:100100000BBF02C007900D92A030B107D9F71BBEFC
:1001100012E0A0E0B2E001C01D92A030B107E1F70B
:100120000E9450010C94A3010C94000080FF02C0B7
:10013000739A01C0739881FF02C0A59A01C0A59867
:1001400082FF02C0759A01C0759883FF02C0749A3D
:10015000089574980895CF93C82F2D9A82958F7023
:100160000E9496002D982D9A8C2F0E9496002D9813
:1001700087EC90E00197F1F700C00000CF9108955F
:100180002E980E94AB0008952E9A0E94AB0008950D
:10019000CF93DF93EC0102C00E94C40089918823B1
:1001A000D9F7DF91CF9108956295660F660F607C55
:1001B000680F862F80680E94C000089581E00E9429
:1001C000C0008FE39FE10197F1F700C000000895A0
:1001D00082E00E94C0008FE39FE10197F1F700C029
:1001E00000000895CF936B9A9D9A6D9A6C9A259A08
:1001F000269A8FE59AEE0197F1F700C000002E983D
:100200002D98C3E02D9A83E00E9496002D988FE1EF
:100210009EE40197F1F700C00000C15099F72D9AB4
:1002200082E00E9496002D988FE99FE00197F1F7F8
:1002300000C00000CF91089524E630E004C0000023
:100240002A95E9F781508823D1F708952D9A80FFE8
:1002500002C0739A01C0739881FF02C0A59A01C0C1
:10026000A59882FF02C0759A01C0759883FF02C0ED
:10027000749A01C074982D9808951F93182F829531
:100280008F700E942601812F0E94260188EC90E049
:100290000197F1F71F9108952E980E943D0108954E
:1002A0000F931F93279A269A259A6B9A9D9A6D9A77
:1002B0006C9A80E69AEE0197F1F72E982D9883E0DC
:1002C0000E94260100E21EE4C8010197F1F783E0D5
:1002D0000E942601C8010197F1F783E00E942601E0
:1002E000C8010197F1F782E00E94260180EA9FE0B1
:1002F0000197F1F788E20E944C0188E00E944C01CE
:1003000081E00E944C0180E49FE10197F1F786E0D3
:100310000E944C018FE00E944C012E9A81E60E94BF
:100320003D0121E040E951E031E0222311F02F9A14
:1003300001C02F9888E893E1FA013197F1F701970E
:0A034000D9F72327F2CFF894FFCF7E
:00000001FF
