S00B00006C63642E73726563E6
S113000071C000008EC000008CC000008AC00000D7
S113001088C0000086C0000084C0000082C00000C8
S113002080C000007FC000007CC000007AC00000D7
S113003078C0000076C0000074C0000072C00000E8
S113004070C000006EC000006CC000006AC00000F8
S113005068C0000066C0000064C0000062C0000008
S113006060C000005EC000005CC000005AC0000018
S113007058C0000056C0000054C0000052C0000028
S113008050C000004EC000004CC000004AC0000038
S113009048C0000046C0000044C0000042C0000048
S11300A040C000003EC000003CC000003AC0000058
S11300B038C0000036C0000034C0000032C0000068
S11300C030C000002EC000002CC000002AC0000078
S11300D028C0000026C0000024C0000022C0000088
S11300E020C0000011241FBECFEFD1E2DEBFCDBF80
S11300F000E00CBF12E0A0E0B2E0EAE3F3E000E0CD
S11301000BBF02C007900D92A030B107D9F722E0CF
S1130110A0E0B2E001C01D92A131B207E1F784D0A2
S11301200AC16ECF1F920F920FB60F9211248F93B4
S11301309F9380910F029091100201969093100268
S113014080930F021A9B02C02F9A01C02F989F918F
S11301508F910F900FBE0F901F9018952D9A80FFCE
S113016002C0739A01C0739881FF02C0A59A01C0AE
S1130170A59882FF02C0759A01C0759883FF02C0DA
S1130180749A01C074982D980895CF93C82F8295BE
S11301908F70E4DF8C2FE2DF87EC90E00197F1F7BA
S11301A000C00000CF9108952E98EFCF269A259A8B
S11301B06B9A9D9A6D9A6C9A8FE59AEE0197F1F776
S11301C000C000002E982D9883E0C8DF8FE19EE4E4
S11301D00197F1F700C0000083E0C0DF8FE19EE4E7
S11301E00197F1F700C0000083E0B8DF8FE19EE4DF
S11301F00197F1F700C0000082E0B0DF8FE99FE0D3
S11302000197F1F700C0000088E2CEDF88E0CCDF80
S113021081E0CADF8FE39FE10197F1F700C000009E
S113022086E0C2DF8FE0C0CF279A2F982098289AC3
S11302302198299A22982A9A809168008160809353
S1130240680084E080936B00789483B18695817014
S11302501899826080930C02A9DF8CE0A5DF80E00E
S11302609DE790930B0280930A028FEF9FEF909388
S11302700E0280930D0280910A0290910B0220914C
S11302800F023091100230930E0220930D02209140
S11302900D0230910E022817390789F380910D025F
S11302A090910E0290930B0280930A0280910D02AA
S11302B090910E024AE060E072E00AD082E074DFBE
S11302C0C0E0D2E089918823B1F22E9A5EDFFACFA2
S11302D0BB274A3031F4992322F4BDE290958195ED
S11302E09F4F01C0BB27FB015527AA27880F991FE1
S11302F0AA1FA41710F0A41B83955051B9F7A05D51
S1130300AA3308F0A95DA193009779F7B111B193CD
S11303101192CB0100C0DC01FC01672F719177239E
S1130320E1F7329704C07C916D9370836291AE17AC
S10D0330BF07C8F30895F894FFCF47
S9030000FC
