:1000000074C0000091C000008FC000008DC00000CF
:100010008BC0000089C0000087C0000085C00000C0
:1000200083C0000087C000007FC000007DC00000CA
:100030007BC0000079C0000077C0000075C00000E0
:1000400073C0000071C000006FC000006DC00000F0
:100050006BC0000069C0000067C0000065C0000000
:1000600063C0000061C000005FC000005DC0000010
:100070005BC0000059C0000057C0000055C0000020
:1000800053C0000051C000004FC000004DC0000030
:100090004BC0000049C0000047C0000045C0000040
:1000A00043C0000041C000003FC000003DC0000050
:1000B0003BC0000039C0000037C0000035C0000060
:1000C00033C0000031C000002FC000002DC0000070
:1000D0002BC0000029C0000027C0000025C0000080
:1000E00023C0000020202020000011241FBECFEFDD
:1000F000D1E2DEBFCDBF00E00CBF12E0A0E0B2E075
:10010000E2E6F6E000E00BBF02C007900D92A830D7
:10011000B107D9F722E0A8E0B2E001C01D92AB31EF
:10012000B207E1F7FDD09BC26BCF83B18170199903
:10013000826008951F920F920FB60F9211240BB692
:100140000F922F933F934F935F936F937F938F9370
:100150009F93AF93BF93EF93FF931A9B02C02F9A85
:1001600001C02F98E2DF2091160230E0F901EC5F28
:10017000FD4F908198130BC02091190230911A0203
:100180002150310930931A022093190210C0F9014D
:10019000E050FE4F908198130AC0209119023091CF
:1001A0001A022F5F3F4F30931A0220931902809357
:1001B0001602FF91EF91BF91AF919F918F917F9127
:1001C0006F915F914F913F912F910F900BBE0F90C8
:1001D0000FBE0F901F901895269A259A6B9A9D9A9C
:1001E0006D9A6C9A8FE59AEE0197F1F700C00000C6
:1001F0002E982D982D9A739AA59A759874982D9883
:100200008FE19EE40197F1F700C000002D9A739AE8
:10021000A59A759874982D988FE19EE40197F1F74F
:1002200000C000002D9A739AA59A759874982D981D
:100230008FE19EE40197F1F700C000002D9A7398BA
:10024000A59A759874982D988FE99FE00197F1F71A
:1002500000C000002E982D9A7398A59A75987498EE
:100260002D982D9A7398A5987598749A2D9887EC67
:1002700090E00197F1F700C000002E982D9A739836
:10028000A598759874982D982D9A7398A598759837
:10029000749A2D9887EC90E00197F1F700C0000068
:1002A0002E982D9A7398A598759874982D982D9AD4
:1002B000739AA598759874982D9887EC90E001979B
:1002C000F1F700C000008FE39FE10197F1F700C054
:1002D00000002E982D9A7398A598759874982D986B
:1002E0002D9A7398A59A759A74982D9887EC90E03A
:1002F0000197F1F700C000002E982D9A7398A598E9
:10030000759874982D982D9A739AA59A759A749ADF
:100310002D9887EC90E00197F1F700C00000089558
:10032000279A2098219822982A9A1A9B02C02F9ADD
:1003300001C02F98E8E6F0E080818160808387E04B
:1003400080936B007894F1DE8093160245DF2E983F
:100350002D9A7398A598759874982D982D9A7398DE
:10036000A598759A749A2D9887EC90E00197F1F70B
:1003700000C0000080E09DE7909315028093140276
:100380008FEF9FEF9093180280931702CBE0D2E09B
:1003900004EE10E00F2EF5EEEF2EF0E0FF2EF02D24
:1003A00020911402309115028091190290911A0245
:1003B000909318028093170280911702909118026F
:1003C0008217930789F380911702909118029093F6
:1003D00015028093140280911702909118024AE04E
:1003E0006AE072E009D12E982D9A7398A5987598B5
:1003F000749A2D982D9A7398A598759874982D983D
:10040000E7ECF0E03197F1F700C0000020910A021C
:10041000222309F441C0FE012E9A822F90E0959587
:1004200087959595879595958795959587952D9A17
:1004300080FF02C0739A01C0739881FF02C0A59A21
:1004400001C0A59882FF02C0759A01C0759883FF0C
:1004500002C0749A01C074982D982D9A20FF02C092
:10046000739A01C0739821FF02C0A59A01C0A59894
:1004700022FF02C0759A01C0759823FF02C0749ACA
:1004800001C074982D9887EC90E00197F1F700C0B7
:10049000000021912111C0CFF8012491222309F4F9
:1004A00042C0F7012E9A822F90E0959587959595F9
:1004B000879595958795959587952D9A80FF02C08C
:1004C000739A01C0739881FF02C0A59A01C0A598D4
:1004D00082FF02C0759A01C0759883FF02C0749AAA
:1004E00001C074982D982D9A20FF02C0739A01C004
:1004F000739821FF02C0A59A01C0A59822FF02C0EF
:10050000759A01C0759823FF02C0749A01C074984F
:100510002D9887EC90E00197F1F700C0000024913E
:1005200031962111BFCF2E982D9A7398A598759A60
:10053000749A2D982D9A7398A598759874982D98FB
:10054000E7ECF0E03197F1F700C00000809108027D
:10055000909109029C012F5F3F4F30930902209335
:1005600008024AE06AE072E047D020910A022223A2
:1005700009F416CFFE012E9A822F90E0959587956B
:100580009595879595958795959587952D9A80FF53
:1005900002C0739A01C0739881FF02C0A59A01C07E
:1005A000A59882FF02C0759A01C0759883FF02C0AA
:1005B000749A01C074982D982D9A20FF02C0739AE6
:1005C00001C0739821FF02C0A59A01C0A59822FF1F
:1005D00002C0759A01C0759823FF02C0749A01C0C9
:1005E00074982D9887EC90E00197F1F700C0000017
:1005F00021912111C0CFD4CEBB274A3031F49923A9
:1006000022F4BDE2909581959F4F01C0BB27FB016D
:100610005527AA27880F991FAA1FA41710F0A41BFB
:1006200083955051B9F7A05DAA3308F0A95DA19355
:10063000009779F7B111B1931192CB0100C0DC01A1
:10064000FC01672F71917723E1F7329704C07C9109
:100650006D9370836291AE17BF07C8F30895F89445
:02066000FFCFCA
:08066200020003010103000284
:00000001FF
