:100000000C9472000C9486000C9486000C9486006C
:100010000C9486000C9486000C9486000C94860048
:100020000C9486000C9486000C9486000C94860038
:100030000C9486000C9486000C9486000C94860028
:100040000C9486000C9486000C9486000C94860018
:100050000C9486000C9486000C9486000C94A200EC
:100060000C9486000C9486000C9486000C948600F8
:100070000C9486000C9486000C9486000C948600E8
:100080000C9486000C9486000C9486000C948600D8
:100090000C9486000C9486000C9486000C948600C8
:1000A0000C9486000C9486000C9486000C948600B8
:1000B0000C9486000C9486000C9486000C948600A8
:1000C0000C9486000C9486000C9486000C94860098
:1000D0000C9486000C9486000C9486000C94860088
:1000E0000C94860011241FBECFEFD1E2DEBFCDBF3E
:1000F00000E00CBF22E0A0E0B2E001C01D92AA30F7
:10010000B207E1F70E9493000C944E010C9400009A
:100110000895089580E092E00C94880080E092E0D9
:100120000C94890008950E94EC000E9492000E94A5
:100130008A00C0E0D0E00E948E002097E1F30E9488
:100140000000F9CF1F920F920FB60F9211242F9338
:100150003F938F939F93AF93BF93809102029091AF
:100160000302A0910402B09105023091010223E044
:10017000230F2D3720F40196A11DB11D05C026E8DF
:10018000230F0296A11DB11D20930102809302024C
:1001900090930302A0930402B0930502809106029B
:1001A00090910702A0910802B09109020196A11D49
:1001B000B11D8093060290930702A0930802B093AA
:1001C0000902BF91AF919F918F913F912F910F9015
:1001D0000FBE0F901F901895789484B5826084BDEF
:1001E00084B5816084BD85B5826085BD85B581603B
:1001F00085BDEEE6F0E0808181608083E1E8F0E09B
:100200001082808182608083808181608083E0E8C9
:10021000F0E0808181608083E1EBF0E080818460A8
:100220008083E0EBF0E0808181608083E1E9F0E0B1
:10023000808182608083808181608083E0E9F0E05A
:10024000808181608083E1EAF0E080818260808348
:10025000808181608083E0EAF0E08081816080833A
:10026000E1E2F1E08081826080838081816080832F
:10027000E0E2F1E0808181608083EAE7F0E0808164
:1002800084608083808182608083808181608083BC
:100290008081806880831092C1000895F894FFCF18
:00000001FF
