:100000000C9472000C948B000C948B000C948B005D
:100010000C948B000C948B000C948B000C948B0034
:100020000C948B000C948B000C948B000C948B0024
:100030000C948B000C948B000C948B000C948B0014
:100040000C948B000C948B000C948B000C948B0004
:100050000C948B000C948B000C948B000C948B00F4
:100060000C948B000C948B000C948B000C948B00E4
:100070000C948B000C948B000C948B000C948B00D4
:100080000C948B000C948B000C948B000C948B00C4
:100090000C948B000C948B000C948B000C948B00B4
:1000A0000C948B000C948B000C948B000C948B00A4
:1000B0000C948B000C948B000C948B000C948B0094
:1000C0000C948B000C948B000C948B000C948B0084
:1000D0000C948B000C948B000C948B000C948B0074
:1000E0000C948B0011241FBECFEFD1E2DEBFCDBF39
:1000F00000E00CBF12E0A0E0B2E0EAE1F4E000E0D2
:100100000BBF02C007900D92A430B107D9F70E942F
:100110000D010C940B020C94000024E630E08823BF
:1001200029F000002A95E9F78150F9CF0895882336
:1001300011F02F9A08952F9808952D9A80FF02C0EC
:10014000739A01C0739881FF02C0A59A01C0A59857
:1001500082FF02C0759A01C0759883FF02C0749A2D
:1001600001C074982D980895CF93C82F2E9882952A
:100170008F700E949D008C2F0E949D0087EC90E064
:100180000197F1F700C00000CF910895269A259AB3
:100190006B9A9D9A6D9A6C9A8FE59AEE0197F1F79A
:1001A00000C000002E982D9883E00E949D008FE1F2
:1001B0009EE40197F1F700C0000083E00E949D00DB
:1001C0008FE19EE40197F1F700C0000083E00E94F8
:1001D0009D008FE19EE40197F1F700C0000082E0EE
:1001E0000E949D008FE99FE00197F1F700C0000099
:1001F00088E20E94B40088E00E94B40081E00E947E
:10020000B4008FE39FE10197F1F700C0000086E0A2
:100210000E94B4008FE00C94B4008091020290918F
:100220000302019660E075E00E94E30190930302EF
:100230008093020280910002909101029C012F5F45
:100240003F4F30930102209300028115954024F026
:100250001092010210920002279A0E94C6002E9A64
:1002600086E00E949D0081E60E949D0087EC90E060
:100270000197F1F700C0000081E00E9497009FEF16
:1002800027EA81E6915020408040E1F700C000005D
:1002900080E00E9497009FEF27EA81E6915020407E
:1002A0008040E1F700C0000081E00E9497009FEFCE
:1002B00027EA81E6915020408040E1F700C000002D
:1002C00080E00E9497009FEF27EA81E6915020404E
:1002D0008040E1F700C0000081E00E9497009FEF9E
:1002E00029E688E1915020408040E1F700C00000FD
:1002F00080E00E9497009FEF29E688E1915020401E
:100300008040E1F700C0000081E00E9497009FEF6D
:1003100029E688E1915020408040E1F700C00000CC
:1003200080E00E9497009FEF29E688E191502040ED
:100330008040E1F700C0000081E00E9497009FEF3D
:1003400029E688E1915020408040E1F700C000009C
:1003500080E00E9497009FEF29E688E191502040BD
:100360008040E1F700C0000081E00E9497009FEF0D
:1003700027EA81E6915020408040E1F700C000006C
:1003800080E00E9497009FEF27EA81E6915020408D
:100390008040E1F700C0000081E00E9497009FEFDD
:1003A00027EA81E6915020408040E1F700C000003C
:1003B00080E00E9497009FEF27EA81E6915020405D
:1003C0008040E1F757CF97FB072E16F4009407D033
:1003D00077FD09D00E94F70107FC05D03EF4909507
:1003E00081959F4F0895709561957F4F0895AA1B41
:1003F000BB1B51E107C0AA1FBB1FA617B70710F010
:10040000A61BB70B881F991F5A95A9F78095909541
:0A041000BC01CD010895F894FFCF60
:04041A0006000500D3
:00000001FF
