:100000000C9438000C944A000C944A000C944A005A
:100010000C944A000C944A000C944A000C944A0038
:100020000C944A000C944A000C944A000C944A0028
:100030000C944A000C944A000C944A000C944A0018
:100040000C944A000C944A000C944A000C944A0008
:100050000C944A000C944A000C944A000C944A00F8
:100060000C944A000C944A000C944A000C944A00E8
:1000700011241FBECFEFD4E0DEBFCDBF11E0A0E062
:10008000B1E001C01D92A430B107E1F70E94640005
:100090000C9408030C9400009C01E199FECF3FBB37
:1000A0002EBBE09A8DB308952FEF30E005C000001D
:1000B0002A95E9F78F5F90408F3F910509F0B8F7D7
:1000C00000008A95E9F70895CF93DF938FEF87B902
:1000D00086B98AB38F608ABB80E895E20E946E027F
:1000E0000E94880180E091E060E070E044E050E030
:1000F0002CE430E00E949302C0E0D1E089910E949C
:100100002F0281E0C430D807C9F72CED35E0AAE012
:100110006FEF70E0E5EFF0E0C6E9D0E001C0A6EFD8
:100120008BB3807F8BBB00006A95E9F70000EA95EE
:10013000E9F78BB38F608BBBA901C90105C0000033
:100140006A95E9F78F5F90408F3F910509F0B8F706
:1001500000008A95E9F7C90105C000006A95E9F732
:100160008F5F90408F3F910509F0B8F700008A95A6
:10017000E9F78BB3807F8BBB00006A95E9F700003D
:10018000EA95E9F78BB38F608BBBC90105C000000E
:100190006A95E9F78F5F90408F3F910509F0B8F7B6
:1001A00000008A95E9F705C000006A95E9F74F5FFE
:1001B00050404F3F510509F0B8F700004A95E9F764
:1001C0008BB3807F8BBB00006A95E9F70000EA954E
:1001D000E9F78BB38F608BBB80E596E400006A95EE
:1001E000E9F78F5F904086399105C1F70000CA9505
:1001F000E9F780E596E400006A95E9F78F5F9040A3
:1002000086399105C1F70000CA95E9F78A2F992729
:1002100087FD9095280F391F89E0253C38070CF0A1
:100220007ECF81E0243F38070CF07ACFAAE078CF68
:1002300024E630E004C000002A95E9F781508823C5
:10024000D1F708958295807F98B39F70982B98BBC3
:10025000949A000094980895282F207F98B39F7057
:10026000922B98BB949A000094988295807F98B3C3
:100270009F70982B98BB949A0000949888E790E020
:1002800000008A95E9F788E790E000008A95E9F791
:1002900008959298282F207F98B39F70922B98BB37
:1002A000949A000094988295807F98B39F70982BC1
:1002B00098BB949A0000949888E790E000008A9593
:1002C000E9F788E790E000008A95E9F708959298A9
:1002D00088B38F7088BB949A0000949888B38F700D
:1002E000806188BB949A0000949888E790E00000B1
:1002F0008A95E9F788E790E000008A95E9F780E3BE
:1003000024E630E000002A95E9F78150D9F70895F6
:100310008C9A8A9A8B9A87B3806F87BB94989398AC
:10032000929888B38F70806A88BB86E924E630E0B3
:1003300000002A95E9F78150D9F788B38F7088BB00
:10034000949A0000949889E224E630E000002A950F
:10035000E9F78150D9F788B38F7088BB949A000071
:10036000949884E690E000008A95E9F784E690E0AE
:1003700000008A95E9F788B38F7088BB949A0000D3
:10038000949884E690E000008A95E9F784E690E08E
:1003900000008A95E9F7929888B38F70806288BBD5
:1003A000949A0000949888B38F70806888BB949A60
:1003B0000000949888E790E000008A95E9F788E7C4
:1003C00090E000008A95E9F7929888B38F7088BB17
:1003D000949A0000949888B38F70806888BB949A30
:1003E0000000949888E790E000008A95E9F788E794
:1003F00090E000008A95E9F70E946701929888B31F
:100400008F7088BB949A0000949888B38F70806630
:1004100088BB949A0000949888E790E000008A9541
:10042000E9F788E790E000008A95E9F7929888B3A9
:100430008F7088BB949A0000949888B38F70806EF8
:1004400088BB949A0000949888E790E000008A9511
:10045000E9F788E790E000008A95E9F70895929A15
:10046000282F207F98B39F70922B98BB949A0000FE
:1004700094988295807F98B39F70982B98BB949A9C
:100480000000949888E790E000008A95E9F788E7F3
:1004900090E000008A95E9F70895FC0148E750E0F4
:1004A00019C0929A822F807F98B39F70982B98BB27
:1004B000949A000094982295207F88B38F70822BA5
:1004C00088BB949A0000949800004A95E9F70000D0
:1004D0004A95E9F72191222321F708959C0140E0F4
:1004E00050E084E0220F331F441F551F8A95D1F737
:1004F00060E072E18AE790E00E94AF022150304054
:1005000030BD29B986E880BD88E18AB91BB8089555
:100510005D9BFECF8CB980E090E008955F9BFECF9D
:100520008CB190E00895A0E0B0E0E9E9F2E00C942D
:10053000DB027C01EB018A01690109C0CE01219631
:10054000F6010995F70181937F01015010400115D3
:100550001105A1F7CDB7DEB7E8E00C94F702A1E2F0
:100560001A2EAA1BBB1BFD010DC0AA1FBB1FEE1F2D
:10057000FF1FA217B307E407F50720F0A21BB30B78
:10058000E40BF50B661F771F881F991F1A9469F7F4
:1005900060957095809590959B01AC01BD01CF0150
:1005A00008952F923F924F925F926F927F928F9217
:1005B0009F92AF92BF92CF92DF92EF92FF920F93F2
:1005C0001F93CF93DF93CDB7DEB7CA1BDB0B0FB6FC
:1005D000F894DEBF0FBECDBF09942A8839884888B9
:1005E0005F846E847D848C849B84AA84B984C8844F
:1005F000DF80EE80FD800C811B81AA81B981CE0F46
:10060000D11D0FB6F894DEBF0FBECDBFED0108952A
:04061000F894FFCF8C
:00000001FF
