:0200000061C0DD
:10000200D8C1E6C1FCCFFBCFFACFF9CFF8CFF7CFFB
:10001200F6CFF5CFF4CFF3CFF2CFF1CFF0CFEFCFD2
:10002200EECFEDCF4348726F6E4F2020000020725A
:1000320061646563656B2000207A616B7265732071
:100042000000202002727574202000002073747258
:100052007A610120000020730161626120200000AA
:100062006261746572696120000030313233343567
:1000720036373839000E010F110F0201040406044D
:100082000C04040004000E100E011E001B150004D7
:1000920004000E1100000C0C0C0C000001000D0CF1
:1000A2000C0D000106010601060106000C12120CDD
:1000B200000000000601A503B60306008C01B6008D
:1000C2000000F894EE27ECBBF1E0FBBFEBBFE5BF0D
:1000D200F8E1F1BDE1BD8DE0A2E0BB27ED938A9589
:1000E200E9F780E094E0A0E6ED930197E9F7ECEB05
:1000F200F0E085919591009761F0A591B5910590F9
:100102001590BF01F00105900D920197E1F7FB01F7
:10011200F0CFEFE5EDBFE4E0EEBFC0E6D1E0E0C036
:10012200662462D366D360D36DD35ED374D35CD3BB
:100132007BD35AD382D358D389D356D390D354D3B3
:1001420097D39924772408950ED7E6E2F0E014912C
:1001520000E0093038F495D3349193D3E4911E270B
:100162000F5FF7CFE12F04D74EC01A9310E015307E
:1001720070F48CD3E05AFE4FBF018BD3F2D4DB0173
:10018200EC9387D3DBD4E983FA831F5FF0CF188126
:1001920023960895E881F981662777279AD5A0E00A
:1001A200B0E583EC98E46BD65AD378D380D319D6D2
:1001B20087D38FD35DD322960895D7D693D350D5C4
:1001C2008F0190D394D39AD3359730F0F8013196BA
:1001D200AAE0B0E0ABD405C0AAE0A09FF001A19FC5
:1001E200F00DC8D6269608958ED392D387D336972C
:1001F20040F089D3ADECBCEC8CEC9DE3A4D577D375
:1002020002C081D374D32496089589D3E0918101E9
:10021200F0918201609183017091840185D38CD326
:100222008ED390D394D398D3E03011F4E0E202C09D
:1002320093D395D3EA9398D39AD39CD3EEE29AD3ED
:100242009BD398D39CD39DD3E9579ED3EAE492D310
:1002520025D38AD4B2DF9AD388DF93D3E05494D3E0
:10026200E6E588D374D395D3E03011F4E0E202C01E
:1002720090D375D3EA9378D38CD3E03019F46CD34E
:10028200E03009F002C0000003C066D368D372D325
:100292006ED370D37ED3E03019F45ED3E03009F030
:1002A20001C06DD36ED3EB536FD3EDE663D3EFE2B0
:1002B20061D3E3E75FD30895E8B7E2FF10C02FD31D
:1002C200EAE3F0E069D393D1E8EEF3E068D39098E3
:1002D200E0E067D377246BD3E4E1E8BF74D30895F9
:1002E200C098C198C298929875D3E2BB889AB89A7E
:1002F200B99ABA9A72D3BB98BC98BD98C39AC49A59
:10030200C59A22DFEC33E9F741D161D108D3E6E2A5
:10031200F0E042D36CD1E0E3F0E038D332D3E054E2
:10032200EA9365D1E0EDF7E03AD3F9D2A0E0B0E08C
:100332002DD457D3BCD25ED311F008F003C0B7D28C
:1003420003D62CF4E0E0F0E060E87FE34AD3EEB5B8
:10035200EE7F27D3E5B7E07FE5BFE5B7EA60E5BF0B
:100362007894EBB7E06CEBBFDBDE21D3A3D15E2E3A
:10037200552009F444244420C9F4E1E0E51511F4C0
:10038200A8D109C0E2E0E51511F419D204C0E4E0F5
:10039200E51561F41FD2E92DACE8B1E0F0E0EE0F13
:1003A200FF1FAE0FBF1FED91FD91099585DFDECFD7
:1003B200FFCFEA93EFB7EA93E1E0EEBDEBB7EF7B55
:1003C200EBBF909AE1E07E2EE991EFBFE99118959B
:1003D2000A921A92FA926A937A938A939A93AA93B6
:1003E200BA93EA93FA93EFB7EA93E0E0EEBDE8B787
:1003F200E2FD03C0E0E0E71519F402D306D3189535
:100402007724ECB5FDB5C2D2C5DEFAD26394E3E639
:10041200E61510F485DE5EC0662009F45BC0E1E0FB
:10042200E61521F43BD200D239D207D237D2FBD221
:100432008AD40CD2E62DF7D2FF276627772749D434
:100442001ED5D7D1F9D23CD25FD509F008F402C04B
:1004520025D2EAD1E0917101F091720160917301AC
:10046200709174012DD250D510F418D2E6D1A0911A
:100472007101B09172018091730190917401DCD28B
:100482005BD4C9D1A0917901B0917A0180917B01AD
:1004920090917C0159D554F4E0917901F0917A015F
:1004A20060917B0170917C01A8D3B5D1E091690183
:1004B200F0916A0160916B0170916C01F8D191D455
:1004C200A0916901B0916A0180916B0190916C01D8
:1004D20000D298D16CD2E4EFF1E061D2909873D25D
:1004E20094D21895C29AC198B0D2B6D2E07FBAD24D
:1004F200B3D2E295EF70A0918901EA2BB3D2E091D9
:100502008901E07891F7C29868D20895EBDFE8811B
:10051200E03019F4C198C29827C0E23019F4C19AA8
:10052200C29822C0E330E9F490D2C19AC29AA1D211
:10053200E0B3E06FE0BBC09A84E48A95F1F7E0B3E0
:10054200E07FE0938A01C09894D286D2E07FE29560
:10055200EF70A0918A01EA2BE0938A01C0983DD204
:1005620013C0E13009F410C088D2AE2FE981E07FD8
:10057200EA2BE2BB32D285D280D2AE2FE981E2955C
:10058200E07FEA2BE2BBC09822960895EFE0F0E00C
:1005920006D2C298C1981ED2E2BBE2B3E063E2BBCC
:1005A20073D2E5E0F0E0FBD16FD285E88A95F1F7EE
:1005B2006BD210D2E2BB959A67D2E8E2E5D1E8E0CD
:1005C200E3D1ADD1E6E0E0D1ECE0DED108951A93BB
:1005D20010E0103450F4E12FE05CD6D157D1EA5844
:1005E200FF4FE491C7D11F5FF4CF19910895E881BD
:1005F200CBD1E981FA81E491E03069F0E981FA81B5
:10060200E491B8D1E981FA813196E983FA838DE0E8
:100612008A95F1F7EECF2396089538D219F4E2E3E2
:10062200F0E0BDD138D2E2E0E515A1F437D2DF0126
:10063200CB01E0D110F432D204C0E0E0F0E060E29D
:1006420071E4E0938501F0938601609387017093D2
:10065200880113C0E4E0E51581F42ED2DF01CB015D
:1006620077D414F429D201C0BFD0E0938501F0936E
:100672008601609387017093880126D249D186D181
:1006820074DD7FD1EF5380D184D1E03011F4E0E208
:1006920002C07FD164D1EA9367D15ED160D16AD1C1
:1006A200EEE268D164D166D167D164D168D1E7E660
:1006B20061D108955AD411D21E2FEAE0F0E06FD131
:1006C2000CD20E2F011711F4E12F01C0E0E055D436
:1006D2000895F89424D1E4E4F0E05ED188DF9DDF50
:1006E200E9DFE030E9F7552019F44424CC24DD2475
:1006F200E1DF5E2EE1E0E41519F4F60131966F01B7
:10070200C5D118F4E4E6F0E06F01E0E0E41511F081
:10071200BDD109F482DFE0E0E51519F0E1E0E5156D
:1007220009F0E1CFB8D1FBD0A0E0B0E02FD2BFD02A
:1007320015D421F0C9D1A0E0B0E03DD266DDEAB720
:10074200E06CEABF78940895EAD0EEE4F0E024D1B8
:100752004EDFE62DF0E01AD108DD13D1ED5314D1AE
:1007620006D108D109D106D10895D9D00AD1ED57C1
:100772000BD1E8D0E3E7FED0E2E7FCD0E0917D01C7
:10078200F0917E0160917F0170918001CDD0EF5395
:10079200FBD0E2D0E03011F4E0E202C0DDD0DFD0E5
:1007A200EA93E2D0E4D0E6D0EEE2E4D0E5D0E2D0C3
:1007B200E6D0E7D0E953E8D0EAE4DCD00895939498
:1007C200E2E0E91508F49924F2D074DFE030E9F7A9
:1007D20062D10895A4D0A4DC6FDD9098E8D06ADFDE
:1007E200E030E9F758D10895E0E0F0E060E070E031
:1007F2000895E0936901F0936A0160936B0170932D
:100802006C010895E0937D01F0937E0160937F0176
:10081200709380010895E0937901F0937A016093D7
:100822007B0170937C010895E0937501F09376014A
:1008320060937701709378010895E0937101F093CA
:10084200720160937301709374010895E0936D01D6
:10085200F0936E0160936F01709370010895E093BD
:100862006501F093660160936701709368010895D2
:10087200E0938101F093820160938301709384017C
:100882000895E02FF0E0E05DFF4F0895E12FF0E0E2
:100892000895A981BA81EAE0F0E00895E091650146
:1008A200F091660160916701709168010895A091CD
:1008B2008501B09186018091870190918801089508
:1008C200A0916501B09166018091670190916801E4
:1008D200089587D2DF01CB01E0E0F0E06AEF74E433
:1008E200CED20895EA81FB816C817D810895A0E0DA
:1008F200B0E080E291E475D2B5D10895DF01EAE07B
:10090200F0E02FD10895E881F9816A817B81089511
:10091200A0E0B0E088EC92E464D2A4D10895E1E0D2
:10092200EA93E0E0EA93F2CD1FD15EDCFA93EA9318
:100932001CDCE0918B010895E058EA930895E0E011
:10094200EA93E4CDE5E4EA93E2E0EA93DFCDEDE376
:10095200EA93E2E0EA93DACDE09162010895F0E0F1
:10096200E459FF4FE4910895E2E0EA93CFCDE0919C
:100972006101F5CFEA93F8CFE0916001F0CFE0E2B8
:10098200F9CFE0918B010895EA93D9CFFA93EA93D4
:100992000895E09163010895F9DFF3DFCDCFF6DF2B
:1009A200A5C0EEBDE0E0F0E0FDBDECBD0895E92D8F
:1009B200ACE8B1E0F0E0EE0FFF1FAE0FBF1FED910C
:1009C200FD9109950895EAB7E06CEABFEBB7E06CD8
:1009D200EBBF0895E2B3EF700895E1B3E06FE1BBBE
:1009E2000895E0938501F0938601609387017093E7
:1009F20088010895E0E0F0E060E271E485D20895B4
:100A0200E0E0F0E0FDBDECBD0895E991EFBFF991A2
:100A1200E991B991A9919991899179916991F99005
:100A2200199009900895A0916D01B0916E01809185
:100A32006F01909170010895E0917501F091760136
:100A420060917701709178010895E1B3EF70E1BB95
:100A5200E2B3E06FE2BB0895C09A81E08A95F1F7B4
:100A6200E0B30895E0938901C09881E08A95F1F797
:100A7200089581E08A95F1F70895FBDFC09AF9DFC6
:100A8200A9CFF7DFC0980895C09AFBCFE4E6F0E063
:100A9200EC15FD050895E1E04E2E0895E0918501E3
:100AA200F09186016091870170918801AAE0B7ED0B
:100AB20083E29CE348D10895FADEEAE0F7ED63E2CF
:100AC2007CE357D039D10895E0918501F0918601F8
:100AD20060918701709188010895E6B3E695E695E5
:100AE200E695A7E0AE27E7E0EA230895E991F991B8
:100AF200309639F088EE93E00197F1F7A895319797
:100B0200C9F70895E095F09560957095EF5FFF4FF6
:100B12006F4F7F4F0895FE2FFF0FFF0B6F2F7F2F19
:100B220008956F2F660F660B762F0895FA9FF02DAA
:100B3200EB9FF00DEA9FE02DF10D089500241124A2
:100B420090E1AA0FBB1F001C111C0E1A1F0A18F4F9
:100B52000E0E1F1E01C0A1609A9599F7FD01D001EA
:100B62000895ECDFFD0108957A936A93FA93EA936C
:100B72000895182E862F612D192E972F712D1B2E59
:100B8200BF2FF12D1A2EAE2FE12D0895129603D00C
:100B92007F2F6E2F1297119602D0FE2F1197E19997
:100BA200FECFFF93FFB7F894AEBBBFBBE09AEDB3A5
:100BB200FFBFFF9108950AD012960E2E1F2EE62F28
:100BC200F72F04D0E02DF12D1297089507D011963A
:100BD200EF93EF2F03D0EF9111970895E199FECF94
:100BE2009FB7F894AEBBBFBBE09A8DB3E81719F07C
:100BF200EDBBE29AE19A9FBF089530976040704042
:100C020009F070580895552342F4503811F4E0FF6A
:100C120004C03196691F791F6BF050E8572711F411
:100C22005F93CDC05F3F31F0660F000C579567951B
:100C3200752F08955F9300200AF0CDC0C6C050E81A
:100C4200192E1522880F991F9527550F879550E861
:100C5200072E0522660F771F7527550F6795089592
:100C6200689401C0E8945F93F2DF703818F07F3F18
:100C720008F4A5C056E1571BAAF4519558300EF45A
:100C8200593030F0EFEFFFEF6FEF7FE777F91AC0DF
:100C920077275523B9F0EE0FFF1F661F771F5A956E
:100CA200D1F710C07727583028F0EF2FF62F672F93
:100CB2005850F9CF552331F076956795F795E7951A
:100CC2005A95D1F700200AF41DDF5F9108956894C8
:100CD20001C0E894309760407040B1F0002426F0E3
:100CE200772312F400940EDF172E7EE1112032F0EA
:100CF2007A95EE0FFF1F661F111CF9CFEF2FF62F0B
:100D0200612D5F938ADF5F9108954F93AF01FD01DB
:100D1200DA01AB01BC01CA01402D012C142E4F9106
:100D22000895EA0FFB1F681F0895E095F0956095FE
:100D3200EF5FFF4F6F4F08955F9381DF903871F13E
:100D420050E8152604C05F937ADF903839F1703885
:100D520021F1572F591B13F112F4D7DFFACF583173
:100D620018F0AA27BB278827583028F0AB2FB82FB6
:100D720088275850F9CF552329F08695B795A7951E
:100D82005A95D9F7502D512562F0CBDF38F467958B
:100D9200F795E795739513F41EC0B7DF3EDF5F91B9
:100DA2000895EA1BFB0B680B51F010F40094BDDFB1
:100DB2006623A2F3EE0FFF1F661F7A95CBF7EE278D
:100DC200FF27662777275F910895EFEFFFEF6FE721
:100DD2007FEF5F910895EFEFFFEF6FE77FE75F919E
:100DE20008955F932CDF703851F3903841F301245A
:100DF2000894791F23F41CF300203AF3ECCF0F92EE
:100E02001F932F933F934F93112722279927689F70
:100E1200A0018F9F302D410D591F6B9F300D411D39
:100E2200591F8E9F27D0BF9F25D06A9F23D0BE9F78
:100E32001DD0AF9F1BD0AE9F110D291F391F491F17
:100E4200591FE32FF42F652F522F4F913F912F916E
:100E52001F910F9066232AF0550FEE1FFF1F661F8A
:100E620002C073954BF2CFDE5F910895100D211DE4
:100E7200391F02C0200D311D491F591F08955F936C
:100E8200DEDE703821F411200AF49FCFA4CF90380F
:100E920009F495CF01240894970B1BF4D4F3002096
:100EA200F3CF792F1F932F933F934F931124112741
:100EB200222733274427552790E2AE17BF0786071C
:100EC200410730F0AE1BBF0B860B410B089401C0EB
:100ED2008894551F221F331F111CAA1FBB1F881F76
:100EE200441F9A9551F7F901612D4F913F912F912E
:100EF2001F91662332F0550FEE1FFF1F661F7A9572
:100F020043F281DE5F91089599239AF0772342F0AC
:100F1200971748F029F4AE17BF07860720F031F083
:100F220098948894089598940894089518948894AD
:100F320008957723C2F7971798F3A9F7EA17FB07E3
:100F4200680788F399F3ECCF10978040904008959A
:100F520000240A160B06080609060895EA17FB077D
:100F62006807790708953A932A931A930A93089582
:100F72003B812A8119810881089509911991089567
:00000001FF
