:100000000C9473000C949F000C949F000C949F0020
:100010000C949F000C949F000C949F000C949F00E4
:100020000C949F000C949F000C949F000C949F00D4
:100030000C949F000C949F000C949F000C949F00C4
:100040000C949F000C949F000C949F000C949F00B4
:100050000C949F000C94F7010C949F000C949F004B
:100060000C949F000C949F000C949F000C949F0094
:100070000C949F000C949F000C949F000C949F0084
:100080000C949F000C949F000C949F000C949F0074
:100090000C949F000C949F000C949F000C949F0064
:1000A0000C949F000C949F000C949F000C949F0054
:1000B0000C949F000C949F000C949F000C949F0044
:1000C0000C949F000C949F000C949F000C949F0034
:1000D0000C949F000C949F000C949F000C949F0024
:1000E0000C949F00210211241FBECFEFD1E2DEBF8E
:1000F000CDBF00E00CBF12E0A0E0B2E0EAE1F8E022
:1001000000E00BBF02C007900D92A830B107D9F7ED
:1001100012E0A8E0B2E001C01D92AF30B107E1F7F4
:1001200010E0C6EED0E004C02297FE010E94070452
:10013000C43ED107C9F70E94A1000C940B040C9493
:1001400000002F923F924F925F926F927F928F9218
:100150009F92AF92BF92CF92DF92EF92FF920F9356
:100160001F93CF93DF93209A259A2D9A80917A003E
:10017000886080937A0080917A00806480937A000E
:1001800040900002509001023201882477FC809454
:10019000982CC0910602D091070220910402309160
:1001A000050248EC242E312C289AB901882777FDC6
:1001B0008095982F0E94CF025B016C012BEA3AEAEE
:1001C0004AE250E40E9483037B018C0120E030E08E
:1001D00040E85FE30E943502882314F461E052C0D6
:1001E000C801B70120E030E04FE753E40E947F03ED
:1001F00018160CF043C0C601B50120E030E04AE714
:1002000054E40E9439025B016C0120E030E04AEFC7
:1002100054E40E9483037B018C0120E030E040E83D
:100220005FE30E94350288231CF461E070E022C085
:10023000C801B70120E03FEF4FE757E40E947F037A
:100240001816A4F4C601B50120E030E040E251E404
:100250000E9483030E94A10205C0C1010197F1F72A
:100260006150704061157105C1F70EC0C801B7013A
:100270000E94A102CB010197F1F706C0C801B701A6
:100280000E94A1026A95F1F72898BE01882777FDA0
:100290008095982F0E94CF025B016C012BEA3AEA0D
:1002A0004AE250E40E9483037B018C0120E030E0AD
:1002B00040E85FE30E943502882314F461E052C0F5
:1002C000C801B70120E030E04FE753E40E947F030C
:1002D00018160CF043C0C601B50120E030E04AE733
:1002E00054E40E9439025B016C0120E030E04AEFE7
:1002F00054E40E9483037B018C0120E030E040E85D
:100300005FE30E94350288231CF461E070E022C0A4
:10031000C801B70120E03FEF4FE757E40E947F0399
:100320001816A4F4C601B50120E030E040E251E423
:100330000E9483030E94A10205C0C1010197F1F749
:100340006150704061157105C1F70EC0C801B70159
:100350000E94A102CB010197F1F706C0C801B701C5
:100360000E94A1026A95F1F7F894609102027091DF
:1003700003027894882777FD8095982FA401930134
:100380000E94E6032AE095958795779567952A95CB
:10039000D1F79B01E201C61BD70B06CF0F931F932A
:1003A000009100021091010260910D0270910E0205
:1003B000882777FD8095982F9801442737FD409531
:1003C000542F0E94E6035AE0959587957795679597
:1003D0005A95D1F77093050260930402061B170B20
:1003E00010930702009306021F910F9108951F9228
:1003F0000F920FB60F9211242F933F934F938F9329
:100400009F93EF93FF932091780030E04091790023
:10041000942F80E0822B932B90930302809302020F
:10042000EAE7F0E0808180648083FF91EF919F9103
:100430008F914F913F912F910F900FBE0F901F9072
:100440001895109208021092090210920A0290E484
:1004500090930B0287E080930C02EAE7F0E0808142
:100460008768808390937C000895D4D008F481E05D
:1004700008950CD00AC102D140F0F9D030F021F437
:100480005F3F19F0EBC0511134C1EEC00FD198F3AA
:100490009923C9F35523B1F3951B550BBB27AA2705
:1004A00062177307840738F09F5F5F4F220F331F77
:1004B000441FAA1FA9F333D00E2E3AF0E0E830D043
:1004C00091505040E695001CCAF729D0FE2F27D046
:1004D000660F771F881FBB1F261737074807AB0714
:1004E000B0E809F0BB0B802DBF01FF2793585F4F89
:1004F0002AF09E3F510568F0B1C0FBC05F3FECF3AE
:10050000983EDCF3869577956795B795F7959F5F4D
:10051000C9F7880F911D9695879597F90895E1E0A1
:10052000660F771F881FBB1F621773078407BA0700
:1005300020F0621B730B840BBA0BEE1F88F7E0955B
:100540000895BCD088F09F5790F0B92F9927B751E4
:10055000A0F0D1F0660F771F881F991F1AF0BA9587
:10056000C9F712C0B13081F0C3D0B1E00895C0C066
:10057000672F782F8827B85F39F0B93FCCF386957D
:1005800077956795B395D9F73EF4909580957095DA
:1005900061957F4F8F4F9F4F0895E89409C097FB57
:1005A0003EF490958095709561957F4F8F4F9F4F4A
:1005B0009923A9F0F92F96E9BB279395F69587958E
:1005C00077956795B795F111F8CFFAF4BB0F11F451
:1005D00060FF1BC06F5F7F4F8F4F9F4F16C08823F8
:1005E00011F096E911C0772321F09EE8872F762F2E
:1005F00005C0662371F096E8862F70E060E02AF06F
:100600009A95660F771F881FDAF7880F969587955A
:1006100097F90895990F0008550FAA0BE0E8FEEF2F
:1006200016161706E807F907C0F012161306E407B6
:10063000F50798F0621B730B840B950B39F40A26AF
:1006400061F0232B242B252B21F408950A2609F48D
:10065000A140A6958FEF811D811D089597F99F6791
:1006600080E870E060E008959FEF80EC089500243A
:100670000A941616170618060906089500240A9407
:1006800012161306140605060895092E0394000C8D
:1006900011F4882352F0BB0F40F4BF2B11F460FF1C
:1006A00004C06F5F7F4F8F4F9F4F089557FD905845
:1006B000440F551F59F05F3F71F04795880F97FB26
:1006C000991F61F09F3F79F08795089512161306E0
:1006D0001406551FF2CF4695F1DF08C0161617060F
:1006E0001806991FF1CF8695710561050894089544
:1006F000E894BB2766277727CB0197F908958ADF0F
:1007000008F48FEF08950BD0C0CFB1DF28F0B6DF2B
:1007100018F0952309F0A2CFA7CF1124EACFC6DFA6
:10072000A0F3959FD1F3950F50E0551F629FF00104
:10073000729FBB27F00DB11D639FAA27F00DB11D5D
:10074000AA1F649F6627B00DA11D661F829F2227E6
:10075000B00DA11D621F739FB00DA11D621F839F6D
:10076000A00D611D221F749F3327A00D611D231F43
:10077000849F600D211D822F762F6A2F11249F5791
:1007800050408AF0E1F088234AF0EE0FFF1FBB1FB4
:10079000661F771F881F91505040A9F79E3F510553
:1007A00070F05CCFA6CF5F3FECF3983EDCF386950C
:1007B00077956795B795F795E7959F5FC1F7FE2BFE
:1007C000880F911D9695879597F90895629FD0019E
:1007D000739FF001829FE00DF11D649FE00DF11DFC
:1007E000929FF00D839FF00D749FF00D659FF00DAB
:1007F0009927729FB00DE11DF91F639FB00DE11D98
:10080000F91FBD01CF0111240895EE0FFF1F0590C0
:0A081000F491E02D1994F894FFCF45
:08081A00E8036400640084039C
:00000001FF
